{"abi":[{"type":"function","name":"balances","inputs":[{"name":"","type":"address","internalType":"address"}],"outputs":[{"name":"","type":"uint256","internalType":"uint256"}],"stateMutability":"view"},{"type":"function","name":"deposit","inputs":[],"outputs":[],"stateMutability":"payable"},{"type":"function","name":"getBalance","inputs":[{"name":"user","type":"address","internalType":"address"}],"outputs":[{"name":"","type":"uint256","internalType":"uint256"}],"stateMutability":"view"},{"type":"event","name":"Deposit","inputs":[{"name":"user","type":"address","indexed":true,"internalType":"address"},{"name":"amount","type":"uint256","indexed":false,"internalType":"uint256"}],"anonymous":false}],"bytecode":{"object":"0x6080604052348015600e575f5ffd5b506103048061001c5f395ff3fe608060405260043610610033575f3560e01c806327e235e314610037578063d0e30db014610073578063f8b2cb4f1461007d575b5f5ffd5b348015610042575f5ffd5b5061005d60048036038101906100589190610212565b6100b9565b60405161006a9190610255565b60405180910390f35b61007b6100cd565b005b348015610088575f5ffd5b506100a3600480360381019061009e9190610212565b61016f565b6040516100b09190610255565b60405180910390f35b5f602052805f5260405f205f915090505481565b345f5f3373ffffffffffffffffffffffffffffffffffffffff1673ffffffffffffffffffffffffffffffffffffffff1681526020019081526020015f205f828254610118919061029b565b925050819055503373ffffffffffffffffffffffffffffffffffffffff167fe1fffcc4923d04b559f4d29a8bfc6cda04eb5b0d3c460751c2402c5c5cc9109c346040516101659190610255565b60405180910390a2565b5f5f5f8373ffffffffffffffffffffffffffffffffffffffff1673ffffffffffffffffffffffffffffffffffffffff1681526020019081526020015f20549050919050565b5f5ffd5b5f73ffffffffffffffffffffffffffffffffffffffff82169050919050565b5f6101e1826101b8565b9050919050565b6101f1816101d7565b81146101fb575f5ffd5b50565b5f8135905061020c816101e8565b92915050565b5f60208284031215610227576102266101b4565b5b5f610234848285016101fe565b91505092915050565b5f819050919050565b61024f8161023d565b82525050565b5f6020820190506102685f830184610246565b92915050565b7f4e487b71000000000000000000000000000000000000000000000000000000005f52601160045260245ffd5b5f6102a58261023d565b91506102b08361023d565b92508282019050808211156102c8576102c761026e565b5b9291505056fea264697066735822122096563d41495b516baec9f9e05bd5c3ef12ffdada376979f55896ab351eeda29464736f6c63430008210033","linkReferences":{}},"methodIdentifiers":{"balances(address)":"27e235e3","deposit()":"d0e30db0","getBalance(address)":"f8b2cb4f"},"id":16}